S01700004445564943455F4558414D504C45312E73726563C1
S21440000070280020A13240009D3240009D324000C2
S2144000109D3240009D3240009D324000000000006E
S2144000200000000000000000000000009D3240007C
S2144000309D324000000000009D3240009D3240004E
S2144000409D3240009D3240009D3240009D3240002F
S2144000509D3240009D3240009D3240009D3240001F
S214400060613540009D3240009D3240009915400069
S214400070AD154000C11540009D3240009D32400005
S2144000809D3240009D3240009D3240009D324000EF
S2144000909D3240009D3240009D3240009D324000DF
S2144000A09D3240009D3240009D3240009D324000CF
S2144000B09D3240009D3240009D3240009D324000BF
S2144000C09D3240009D324000512040009D3240000D
S2144000D010B5054C237833B9044B13B10448AFF33D
S2144000E000800123237010BDF005002000000000B2
S2144000F0383940000C4B43B10C4810B50C49AFF3AF
S21440010000800C48036823B910BD0A48036833B919
S2144001107047094B002BF7D0BDE810401847064BF8
S214400120002BF5D0184700BF0000000038394000CB
S214400130F4050020383940000000000008B51320C0
S214400140024B98471420024B984708BDD9114000EF
S2144001509D11400010B51320024CA0471420A04724
S21440016010BD00BF9D11400008B51320014B9847B5
S21440017008BD00BFD911400008B51420014B984770
S21440018008BD00BFD911400008B51420014B984760
S21440019008BD00BF9D1140007047704770477047CC
S2144001A07047704708B518B1B0F57A7F04D008BDDF
S2144001B01320034B984708BD1320024B9847F6E799
S2144001C0D91140009D11400010B53E2100200A4B39
S2144001D098470A4CA0470028FCD0094B9847094A44
S2144001E0094BDA62094CA0470028FCD00120084B96
S2144001F09847084B984710BD391640008D1640006A
S214400200BD164000023F0F0000040E40C9164000D5
S214400210811740009517400010B50E480E4B984782
S2144002203E2100200D4B98470D4CA0470028FCD09F
S2144002300C4B98470C4A0D4B9A620D4CA047002831
S214400240FCD010200B4B98470B4B98470148024B6D
S214400250984710BD0090D003A100002039164000FA
S2144002608D1640009D164000033F1F2000040E40A0
S214400270AD164000D515400039334000024A137889
S214400280013BDBB213707047170600200020704712
S2144002900020704708B502490020024B984708BD29
S2144002A0100600207936400010B50024124B1C7012
S2144002B0124B1C80124BA1221A7020225A705C806E
S2144002C09C800222DA801C810E494FF4E1330B6099
S2144002D00C714C7108238B7120460B4B9847204677
S2144002E00A4B9847024620B103490B780133DBB2EC
S2144002F00B70104610BD00BF17060020B006002049
S2144003004807002010060020793640001935400086
S214400310444B1B7803B1704770B584B0424B984746
S214400320002841D0414B1C88414B9847844276D0A8
S214400330EFF31083B3FA83F35B09039372B6BFF30C
S2144003405F8F00223B4B1A70039D3B4B1C78E4B2F8
S2144003503A4B33F81430002B2DD00022384B1A80FD
S214400360384B1B78002B42D1B4FA84F35B09324AEF
S214400370137001222B4B1A7025B12E4B1A70BFF307
S2144003805F8F62B626462D4B33F81430402B14BF91
S2144003900125002534D0244B984700282BD0244BE9
S2144003A09847224B18802EE0204B1C88264B9847B7
S2144003B08442BDD133E0224A1388013313801A4B5E
S2144003C0984718B91E4B1B88632B08D9164B98477D
S2144003D00028C2D01A4B1B88B3F5487FBDD2F5B172
S2144003E00122144B1A70BFF35F8F62B617E0B4FA5F
S2144003F084F46409BDE7144B98470C4B188002E020
S21440040000220A4B1A800D4B33F816300F4A0092E2
S2144004100F4A02EB8412294681200E4CA04704B0B6
S21440042070BD00BF44070020C92A40004007002096
S214400430352B4000C00100203C0700203807002034
S2144004400C060020B4060020252B4000590440002E
S214400450B80600208D2E400000B1704708B5074B07
S2144004601B78B3FA83F35B09054A22F81300054B61
S2144004701870054B1870054B984708BD3C07002080
S21440048038070020B406002044070020110340002F
S21440049008B50020014B984708BD00BF1103400037
S2144004A00D4B1B78BBB90D4B1B889BB20C4A12896F
S2144004B09A4210D010B582B00846084B1B88084AAE
S2144004C01381084B00930A230021074CA047024B98
S2144004D0187002B010BD7047AC060020B006002071
S2144004E0480700204D0540008D2E400000B583B0E3
S2144004F0EFF31083B3FA83F35B09019372B6BFF34D
S2144005005F8F00200E4B1870019891B10D490B88F3
S2144005109BB21A430A8028B10122094B1A70BFF3D6
S2144005205F8F62B683210020074B984703B05DF883
S21440053004FB04490B889BB223EA02020A80EAE7DE
S214400540C0010020B0060020A104400008B50020ED
S214400550084B187008490B8823F07C031B041B0CBF
S2144005600B8006490B8923F07C030B811146044B14
S214400570984708BDAC060020B0060020480700207B
S214400580A104400008B5064A1378013BDBB213705D
S2144005901078044B98470022034B1A7008BD00BFE2
S2144005A018060020313540000E06002008B5224BC4
S2144005B01B7813F0800F05D103F06003202B18D072
S2144005C0002008BD03F06003202B01D0002008BDAA
S2144005D0194B5B78212B2CD1174BDB88072B01D08E
S2144005E0002008BD144B154A9A6007229A810120C4
S2144005F008BD114B5B78202B03D0222B10D0002057
S21440060008BD0D4BDB88072B01D0002008BD0A4BE8
S2144006100B4A1A61094A9A6007229A81012008BD4E
S214400620054B997801F001010020064B98470120C0
S21440063008BD002008BD00BF54080020100600205A
S214400640950240004935400008B51022012100209F
S214400650014B984708BD00BFED04400008B5402256
S21440066001210020014B984708BD00BFED04400023
S21440067082B0EFF31083B3FA83F35B09019372B64B
S214400680BFF35F8F00220B4B1A7001990A4B1888F4
S21440069083B20A4A1278D2B2094830F8120080B2C1
S2144006A0C01A29B10122034B1A70BFF35F8F62B69E
S2144006B002B07047C0010020A4060020A00600201B
S2144006C09C06002008B5034B9847003018BF012011
S2144006D008BD00BF7106400010B584B0EFF310832C
S2144006E0B3FA83F35B09039372B6BFF35F8F0022BE
S2144006F0204B1A70039B204A1478204A12784AB935
S214400700E4B21F4A118889B21E4A32F8142092B2C7
S214400710914209D263B30122164B1A70BFF35F8F22
S21440072062B6002004B010BD0021154A1180B4FA0C
S21440073084F2520910490A700121104A117023B1FF
S2144007400C4B1970BFF35F8F62B600200E4B984774
S21440075050B90E4B009340230D4A02EB8412012100
S21440076002200C4CA047DDE700200B4B9847F0E7F3
S2144007700020D7E7C0010020A0060020A8060020E1
S214400780A40600209C060020C50640003108400014
S2144007901C0600208D2E40004536400010B5002433
S2144007A0164B1C70164B1C70164B1C70164B1C7050
S2144007B0164B1C805C80164B1C802046154B984779
S2144007C0154B1C70154B1C70154B1C805C80154BD4
S2144007D01C802046144B9847014640B1074A137880
S2144007E00133DBB213701378DBB2012B01D008461D
S2144007F010BD01220D4B1A70F9E700BF1806002005
S21440080044070020B40600203C070020380700209C
S2144008104007002011034000A8060020A006002044
S2144008209C060020A4060020D90640000E060020A4
S214400830E8B910B582B010460D4B1C78B4FA84F473
S214400840640951B189B20B4B23F8141000200A4BAF
S21440085018700A4B984702B010BD094B00934023CE
S214400860084A02EB84120121074CA047F3E7704781
S214400870A00600209C060020A8060020D9064000BE
S214400880310840001C0600208D2E400008B5002090
S214400890014B984708BD00BFC50640002DE9F0470C
S2144008A082B0254B93F80680B8F1090F14BF4FF07D
S2144008B000084FF001084FF0000A204CD14657463A
S2144008C01F4D204E04E08B4223D31F4B1B78D3B1E1
S2144008D0EFF31083B3FA83F35B09019372B6BFF369
S2144008E05F8F277001982B889BB23278D2B2174917
S2144008F031F8121089B20028E5D001202070BFF3ED
S2144009005F8F62B6DFE74FF0000A504602B0BDE8A0
S214400910F0870F4901EB8212D25C42EA0A0A0133A1
S2144009209BB22B8048460B4B9847B8F1000FECD053
S2144009304FEA0A2AC846CBE710060020C00100202E
S214400940A4060020A00600200E0600209C060020DC
S2144009501C060020D906400008B50020014B9847E9
S21440096008BD00BF9D08400082B0EFF31083B3FA85
S21440097083F35B09019372B6BFF35F8F0022144B7B
S2144009801A70019A134B1B78DBB2134931F81300E7
S21440099040280AD0C0F140002AB101220C4B1A7000
S2144009A0BFF35F8F62B602B070470C4909780029E2
S2144009B0F0D10B4909780029ECD10120084908708C
S2144009C0B3FA83F35B0903490B700020E2E700BFEC
S2144009D0C00100203C0700203807002044070020C4
S2144009E0B406002008B5034B9847003018BF0120D6
S2144009F008BD00BF6909400008B50020014B984774
S214400A0008BD00BFE50940002DE9F04182B00C4624
S214400A101D4B9D79092D14BF002501251B4E1C4FEB
S214400A20DFF87C8022E0EFF31083B3FA83F35B09B0
S214400A30019372B6BFF35F8F00233B70019898F81E
S214400A400030DBB2134A32F8131001F1010E22F8DF
S214400A5013E0114A02EB83135C5420B101233B7030
S214400A60BFF35F8F62B665B1241200250020B04701
S214400A700028D8D1094B1B78002BF7D102B0BDE82F
S214400A80F0810120FAE700BF10060020E50940008B
S214400A90C001002038070020B80600200E060020BF
S214400AA03C07002008B501460020014B984708BD8A
S214400AB0090A4000104B1B681A6853881A4403788A
S214400AC01844904211D24378042B10D08B4209D060
S214400AD003781844904206D24378042B09D08B42C0
S214400AE0F6D107E07047002070470020704700208E
S214400AF070470020704700BF6007002008B5034BD2
S214400B00987800F07F00024B984708BD54080020B4
S214400B10CD2A4000194B1B784BB3194B1B681B68FA
S214400B201A79824225D970B4164A13605C881C44F0
S214400B30A34220D20025012607E0124A13600FE0A8
S214400B401A7813443546A3420CD25A78042AF7D171
S214400B509A788242F4D1DA788A42F1D1002DECD1EB
S214400B60012002E0074A1360002070BC7047002056
S214400B707047002070470020F7E700BF5C07002062
S214400B8060070020640700202DE9F8430446002152
S214400B90134B9847804610B94046BDE8F883114B42
S214400BA01B685B6853F82490D9F80C309847014688
S214400BB020460B4B984780460028EDD00A4B1C68D1
S214400BC005260A4D0A4F31462046A847044610B12E
S214400BD08078B847F7E7D9F804309847DCE700BF95
S214400BE0150B40006007002064070020B50A40004F
S214400BF03D2C40002DE9F0418046104B9847034677
S214400C00C8B10F4B1C6805260E4D0F4F3146204687
S214400C10A847044638B18288C1788078B8470346EA
S214400C200028F3D107E0094B1B685B6853F828306F
S214400C301B68984703461846BDE8F081150B4000F0
S214400C4064070020B50A4000452B4000600700209E
S214400C5008B5014B984708BDED29400070B50D4BCF
S214400C601B7883B10C4B1B681B681B795BB1002457
S214400C700A4E094D2046B0470134E4B22B681B6843
S214400C801B79A342F6D80022024B1A700122044B6D
S214400C901A8070BD5C07002060070020890B40006A
S214400CA05207002038B50D4B1B78B3B10C4B1B6870
S214400CB01A6812798AB10024094D06E00134E4B27C
S214400CC02B681A681279A24207D95B6853F8243019
S214400CD01B69002BF2D09847F0E738BD5C07002030
S214400CE060070020F8B5884B00229A811A615A6145
S214400CF01B7813F0800F14D113F0600F00F0D580EE
S214400D00814B1B7803F01F03012B00F06E817E4B56
S214400D101B7803F01F03022B00F0C98100231846FE
S214400D20F8BD794AD288002A00F0EA8113F0600FB5
S214400D30E6D113F01F0306D173494978062914D02B
S214400D40082974D051B1012B79D0022BD8D16E4BE3
S214400D505B78002B00F09B8000238AE1022AD6D1E4
S214400D6002216A486A4B9847BBE0674B5A88130A89
S214400D70013B0E2B00F27A81DFE813F00F001D00D6
S214400D803700780178017801780178017801780198
S214400D9078017801780178012F005E4B1868017859
S214400DA05B4B9847584BDA889B89934240F2998030
S214400DB0554B9A8195E0D2B2564B1B685B7C93426A
S214400DC0A5D9544B5B6853F832004188504B98473E
S214400DD04D4B9B6802225A70E4E74E4B98680028B9
S214400DE095D041884A4B9847DCE7D2B2012A1BD0BF
S214400DF0AAB1022A84D1484A0F21013A4748002323
S214400E0012F8014F20F8024B0133DBB28B42F7D386
S214400E1049000231424801703D4B9847C2E70421E1
S214400E2040483B4B9847BDE73F4A0921E5E7012A42
S214400E307FF46DAF01213D48354B984751E032492C
S214400E4049780A2981D1012A40F0CF80374B1B7858
S214400E50002B00F0CA802C4B1C79354B1D682B6844
S214400E601B79A34240F2C18000212046314B98476F
S214400E7000283FF445AF6B6853F82430DB6898474A
S214400E802D4B187001211846214B984729E0022A1D
S214400E907FF43DAF1C4B1879284B9847284B188059
S214400EA0022118461A4B98471BE013F01F0340F0E8
S214400EB08580154A5278013A082A7FD8DFE812F032
S214400EC013007E00D8007E0009007E007E007E0073
S214400ED044000D4BDB88002B7FF419AF194A0A4BB0
S214400EE01A6101231BE7084BDB88002B7FF40FAF0A
S214400EF0054B5B88012B7FF40AAF044A138823F026
S214400F0002031380EDE700BF54080020520700207C
S214400F10392B40000C010020B00100208201002047
S214400F2080010020A0010020A40100205C070020D2
S214400F3060070020150B400058070020952C400005
S214400F4054070020FD0A40006F4BDB88002B7FF4DF
S214400F50DEAE6E4B984700283FF4D2AE6A4B9A7886
S214400F606B4B1B685B7C9A423FF7CAAE694B98470F
S214400F70654B9B78684A1370002BB2D003F1005340
S214400F80013B634A526802EBC3006449086052F86A
S214400F9033301B79002BA4D000242646604D0F46E4
S214400FA031462046A84700283FF4AAAE0134E4B2B2
S214400FB03B681B681B79A342F2D892E7012B0AD004
S214400FC0022B7FF49DAE504B5B78012B2BD0032B2E
S214400FD039D000234DE04C4A52780B2AF0D14A4B88
S214400FE0DB8813B94C4B1B7873B94B4B1B78002BE3
S214400FF000F08880444B1C79484B1D682B681B7951
S214401000A3423AD800238AE63F4B1C795D882046A7
S214401010444B984700283FF473AEE9B22046404B15
S2144010209847034625E0384BDB88002B7FF46FAEAD
S214401030354B5B88002B7FF46AAE334B18793A4BBE
S2144010409847034615E0304BDB88002B7FF45FAEB5
S2144010502D4B5B88002B7FF45AAE2B4C2079334BBC
S21440106098472079324B9847034602E0002300E039
S2144010700023002B7FF453AE42E6002120462D4B42
S214401080984700283FF443AE6B6853F82450EB680B
S214401090984701462046274B984700283FF437AEEE
S2144010A0AB689847034600287FF439AE2FE61A4BC4
S2144010B01B780BB3194B1A6813681B79F3B10024DD
S2144010C01C4E164F536853F82450EB689847014619
S2144010D02046B047034600283FF421AEAB68984709
S2144010E0034600287FF41BAE0134E4B23A68116828
S2144010F00979A142E6D812E6002310E600230EE660
S21440110000230CE600230AE654080020092B400082
S2144011100C0100205D0C40005C07002060070020AA
S214401120F50B4000890B4000B52D400009304000CB
S214401130D52C4000150B400010B54FF40042104B24
S2144011405A600B200F4CA0470C20A0470D20A0470C
S2144011504FF0605113200C4CA0474FF060511420C4
S214401160A0470A492320A04709494C20A0474FF0F2
S21440117000624FF4C0610748074B984710BD00BF58
S21440118050140E40D916400039134000790000280C
S21440119059000028000E0E40591440002DE9F04139
S2144011A006460024094D0A4FDFF8288003E0C04772
S2144011B00834182C08D06059B042F9D12B195B6816
S2144011C0012BF4D0B847F3E7BDE8F081F83840008B
S2144011D0051340001F1340002DE9F0410646002449
S2144011E0094D0A4FDFF8288003E0C0470834182C22
S2144011F008D06059B042F9D12B195B68012BF4D066
S214401200B847F3E7BDE8F081F83840001F134000C8
S214401210051340004264B1F1C05F39D013D8B1F134
S214401220006F25D0B1F1805F0AD1036F1343036787
S214401230436F416F0B4023EA0203436742607047A7
S2144012400029FBD17047B1F1205F20D009D8B1F119
S214401250005FF3D1036F13430367436F1343436742
S214401260ECE7B1F1405F12D0B1F1605F0FD0E5E737
S21440127010B4016F046FD34321401C4619400167E8
S214401280436F416F0B4023404367426010BC70473A
S214401290036F016F0B4023EA02030367436F134358
S2144012A04367CBE7416412F0010F14BF4166016605
S2144012B012F00A0F14BF0162416212F0020F07D10A
S2144012C012F0080F18BFC0F88410416101607047E3
S2144012D0C0F88010F9E710B4019C416444B9016637
S2144012E043B1016542B941630161016010BC70477A
S2144012F04166F5E74165F5E70163F5E7C06C704781
S214401300806C7047430903F5001303F207735B02D2
S21440131000F01F00012202FA00F0186370474309EC
S21440132003F5001303F207735B0200F01F0001226F
S21440133002FA00F05863704770B582B00D46430914
S21440134003F5001303F207735C0201F0F043B3F1B8
S214401350005F53D00AD8B3F1805F2DD0B3F1C05FA1
S2144013603BD0B3F1006F15D0002023E0B3F1405FCF
S21440137055D0B3F1605F52D0B3F1205FF4D100F0A6
S2144013801F0101262A4606FA01F120462F4B9847B0
S21440139030460FE000F01F000126864032464FF0F0
S2144013A0006120462A4B984715F0010F14BF666629
S2144013B02666012002B070BD00F01F000126864060
S2144013C032464FF080512046214B984715F0010F8A
S2144013D014BF666626660120ECE700F01F00012673
S2144013E0864032464FF0C0512046194B984715F07C
S2144013F0010F14BF666626660120DBE700F01F007B
S2144014000126864032464FF000512046104B984702
S21440141015F0010F14BF666626660120CAE705F080
S214401420605200F01F01012605EA06030093C5F34B
S2144014308003B2F1605F14BF0022012206FA01F178
S2144014402046044CA0473046B4E700BFA5124000F3
S21440145015124000D712400070B582B005460E46C1
S214401460144602F0F043B3F1005F3DD00AD8B3F122
S214401470805F21D0B3F1C05F2AD0B3F1006F0ED0A9
S214401480002017E0B3F1405F3AD0B3F1605F37D049
S214401490B3F1205FF4D1234B984701200AE00A4677
S2144014A04FF00061204B984714F0010F14BF6E6652
S2144014B02E66012002B070BD0A464FF080511A4B8E
S2144014C0984714F0010F14BF6E662E660120F1E7B0
S2144014D00A464FF0C051144B984714F0010F14BF02
S2144014E06E662E660120E5E70A464FF000510E4B29
S2144014F0984714F0010F14BF6E662E660120D9E798
S21440150004F0605204F001030093C4F38003B2F188
S214401510605F14BF0022012231462846034CA04794
S2144015200120C7E7A512400015124000D712400020
S2144015302DE9F84381460F46124B984705464846E4
S214401540114B9847054013D0104C04F1600603E059
S214401550B4420DD010345DB12068B842F8D161680D
S2144015602942F5D0E3689847636825EA0305EFE724
S214401570074B1B6823B1074B1B680BB1484698477F
S214401580BDE8F883FD1240000113400068070020C4
S21440159050080020D807002008B50B210148024B10
S2144015A0984708BD000E0E403115400008B50C2186
S2144015B00148024B984708BD00100E4031154000C8
S2144015C008B50D210148024B984708BD00120E4051
S2144015D031154000174A136B23F07003184310630D
S2144015E0936E13F0080F0AD14FF4006311498A6EC8
S2144015F012F0080F03D1013BF9D1012070470D4A84
S214401600136B23F0030343F002031363936E13F04C
S214401610080F0AD14FF4006306498A6E12F0080F8D
S21440162005D1013BF9D101207047002070470020CA
S214401630704700BF00040E40C8B9114A136A090239
S21440164089B223F45C1323F0030343F45C1343F0A2
S21440165001030B431362936E13F0010FFBD0084A4D
S214401660136A43F09B7343F4803313627047044914
S2144016700B6A044A1A40044B13430B62704700BF80
S21440168000040E40FCFFC8FE02003701024B986E75
S21440169000F48030704700BF00040E404FF0005208
S2144016A0014B9A62704700BF00040E40024B986E92
S2144016B000F00200704700BF00040E400022014BBD
S2144016C0DA62704700040E40024B986E00F0040049
S2144016D0704700BF00040E4022281ED81F280CD892
S2144016E0114B9A6901238340934318D0012303FA90
S2144016F000F00D4B18610020704720380A4BD3F895
S21440170008210123834093430BD0012303FA00F0C2
S214401710054BC3F8000100207047012070470020A9
S21440172070470020704700BF00040E40222822D891
S2144017301F280ED8114B9A6901238340934301D04A
S21440174000207047012303FA00F00C4B586100203C
S21440175070472038094BD3F8082101238340934330
S21440176001D000207047012303FA00F0034BC3F872
S2144017700401002070470120704700BF00040E405F
S214401780000200F4706040F00100014B986370471F
S21440179000040E408022014B1A60704700040E4041
S2144017A0034B1A6FC0F3120010431867704700BF10
S2144017B000040E400B4A136F43F4801313670A4A23
S2144017C0136923F004031361BFF34F8F20BF4FF418
S2144017D0FA7300BF013BFCD1024A136A13F0080FAC
S2144017E0FBD0704700040E4000ED00E0431E042B83
S2144017F000F22E81DFE813F0050005001F001F00F1
S2144018001F01944A136F23F480131367924A136997
S21440181023F0040313610122904B1A70BFF35F8FCD
S21440182062B6022803D0BFF34F8F20BF7047BFF386
S2144018304F8F30BF70472DE9F04772B6BFF35F8FCA
S2144018400022864B1A700122854B1A70814BD3F8C2
S21440185020801D6B834AD2F800909F6AD3F82CA054
S21440186048F45C1242F008021A6205F00306012EA4
S21440187040F2958025F0030141F0010119631A46B4
S214401880936E13F0080FFBD011F0700F08D021F0C4
S2144018907001704B19631A46936E13F0080FFBD015
S2144018A00446714B9847714B98476A4A936E13F4B7
S2144018B0003FFBD0674A136A23F09B7323F48033C0
S2144018C043F45C131362936E13F4803FFBD029F409
S2144018D07063644A1360042C63D0604C0123237009
S2144018E0BFF35F8F62B6624B984772B6BFF35F8FA7
S2144018F00023237018F0020F5ED0564A136A5D49E3
S21440190019405D4B0B431362136A23F45C1323F0B8
S214401910780343F45C131362584B3B40002B7CD057
S21440192047F000574B4B9F620222544B0AEA030390
S21440193023B1484BC3F82CA042F00402022E6ED0CE
S214401940032E72D043490B6B23F0700305F07000F2
S21440195003430B638B6E13F0080FFBD0414BC3F869
S2144019600090A3F5C0631D6319468B6E13F0080FF5
S214401970FBD038498B6E1342FCD00022384B1A708D
S2144019803F4B1B681BB1984700223D4B1A60012213
S214401990324B1A70BFF35F8F62B6BDE8F0872946B8
S2144019A072E7A2F5C062136A23F45C1323F00103C6
S2144019B043F45C13136290E718F0010FACD0254B4C
S2144019C01B6A13F0010F0ED1224A136A23F45C13EC
S2144019D023F0030343F45C1343F001031362936E56
S2144019E013F0010FFBD01B4B1B6A13F0807F0AD10C
S2144019F0184A136A43F09B7343F480331362936E22
S214401A0013F4803FFBD0134A136A23F45C1323F08D
S214401A10780343F45C1313627EE7002285E70D49A2
S214401A208B6E13F0020FFBD08CE70A498B6E13F0D7
S214401A30040FFBD086E7084A136943F0040313619A
S214401A400122064B1A70BFF35F8F62B620BF704705
S214401A50704700BF00040E4000ED00E0C0010020CB
S214401A60DC070020000A0E409D164000BD164000D0
S214401A70B5174000FCFFC8FE020037010000FF0714
S214401A80E0070020024B187880F00100704700BF46
S214401A90DC07002082B0014628BB244B1B781BB9CC
S214401AA0224B197002B07047214B9B7803B9FEE772
S214401AB0EFF31083B3FA83F35B09009372B6BFF378
S214401AC05F8F00221B4B1A700098194A9378013B8F
S214401AD093700028E4D00122164B1A70BFF35F8F34
S214401AE062B6DDE7FEE7114B1B78002BD8D1104BD2
S214401AF09B78FF2BF6D0EFF31083B3FA83F35B09A2
S214401B00019372B6BFF35F8F00220A4B1A7001989A
S214401B10074A9378013393700028C1D00122054BC1
S214401B201A70BFF35F8F62B6BAE700BFE5070020C2
S214401B3048080020C0010020034A00231361536177
S214401B409381024A1370704754080020EA07002029
S214401B5082B005220A4B1A700A4A136B0193019B06
S214401B6043F04F030193019B43F020030193019BF5
S214401B701363136B13F0200FFBD002B0704700BF07
S214401B80EA0700200040034082B003220A4B1A7046
S214401B900A4A136B0193019B43F04F030193019B49
S214401BA043F010030193019B1363136B13F0100F64
S214401BB0FBD002B0704700BFEA0700200040034059
S214401BC008B5024B1B6903B1984708BD540800206E
S214401BD030B587B0634B1B78032B29D0624B1B88EC
S214401BE0624A9489E41AA4B2002C44D1604A11880F
S214401BF00B449BB213805D4AD2889A4203D05D4B19
S214401C001B78002B2BD00422564B1A705A4A136B63
S214401C100193019B43F04F030193019B23F0010383
S214401C200193019B1363136B13F0010FFBD114E078
S214401C30514A136B0093009B43F04F030093009B65
S214401C4023F001030093009B1363136B13F0010F03
S214401C50FBD14A4B98474A4B984707B030BD434B59
S214401C605B69002B5DD0984700285AD000223E4B37
S214401C701A803E4B9C893F2C53D900223D4B1A700C
S214401C8040243A4B9968384B1888EFF31083B3FAE0
S214401C9083F35B09059372B6BFF35F8F0022394B1F
S214401CA01A70059D344B1B6B13F0020F3DD14CB19F
S214401CB001440A46304812F8013B0365531ADBB22A
S214401CC0A342F8D3284B1A8814441C802A4A136B24
S214401CD00393039B43F04F030393039B43F010038C
S214401CE00393039B1363136B13F0100FFBD0224A2E
S214401CF0136B0493049B43F04F030493049B23F01D
S214401D0001030493049B1363136B13F0010FFBD181
S214401D10002DA2D001221B4B1A70BFF35F8F62B614
S214401D209BE70122134B1A70ABE72DB10122154BEE
S214401D301A70BFF35F8F62B604220A4B1A700E4ABF
S214401D40136B0293029B43F04F030293029B23F0D4
S214401D5001030293029B1363136B13F0010FFBD135
S214401D607BE700BFEA070020E60700205408002073
S214401D70E8070020E407002000400340C11B400065
S214401D80391B4000C001002038B5437C13F0100FCB
S214401D9016D00D46437C6FF30413437404687CB13D
S214401DA002F10C03074951F8233013F4806F18BF33
S214401DB042F080028168012D14BF00200120A04718
S214401DC038BD00BF0040034030B482B0411E83009F
S214401DD003F1402303F540331A6B1C6B12F0020FDD
S214401DE032D014F0400F08D101EB81022A4C04EBAC
S214401DF08202547C6FF38304547401EB8102264CB8
S214401E0004EB8202527C12F00C0F28D11A6B00921F
S214401E10009A42F04F020092009A22F0020200928C
S214401E20009A1A631A6B12F0020FFBD180B3032894
S214401E302ED001EB8101184B03EB81035A7C012124
S214401E4061F383025A7423E001EB8102124C04EBE7
S214401E508202547C012565F383045474CDE71A6BE3
S214401E600192019A42F04F020192019A22F04002FA
S214401E700192019A1A631A6B12F0400FFBD101EBE4
S214401E808101054B03EB81014B7C6FF383034B745D
S214401E9002B030BC704700BFEC0700202DE9F0438D
S214401EA083B088468146461E06EB8602664B03EBA9
S214401EB0820393F811C0CCF3810C002800F0B78061
S214401EC003280CBF01230223634540F3B28006EB90
S214401ED086035D4A02EB8303DA689B689A4209D31D
S214401EE006EB8601584C04EB8101497C11F0400F0B
S214401EF000F0A38006EB8605534901EB85056C6828
S214401F001444991A2B8AC3F30907B9423ABF0F46BD
S214401F104FF0010E4FF0000E06EB86034A4901EBE8
S214401F2083033A44DA60072F2BD904F108033D4671
S214401F30820002F1402202F5403213F8081C116577
S214401F4013F8071C116513F8061C116513F8051CD9
S214401F50116513F8041C116513F8031C116513F87A
S214401F60021C116513F8011C1165083D0833072D46
S214401F70E3D8A7F1080323F0070308331C4407F00F
S214401F8007074FB1E319314909F1140914F8012B39
S214401F9041F829209C42F9D106EB86032A4A02EBF7
S214401FA083030CF1010C5A7C6CF383025A74B8F12B
S214401FB0000F14D0800000F1402000F54030036B45
S214401FC00193019B43F04F030193019B43F01003A1
S214401FD00193019B0363036B13F0100FFBD0BEF11C
S214401FE0000F08D006EB8603174A02EB83035A7CA1
S214401FF06FF386125A7406EB8603134A02EB83038A
S214402000DA689B689A421AD306EB86030E4A02EBBE
S21440201083035B7C13F0400F13D106EB860602EB7E
S2144020208606737C43F080037374002002E001232D
S2144020304AE7012003B0BDE8F0830020FAE701201C
S214402040F8E70120F6E700BFEC0700200040034019
S2144020502DE9F04F9BB0874B984720B9864BDB69FC
S21440206013F4807F3BD02220844B9847824B9B6959
S21440207013F4006F04D0804BDB6913F4006F37D144
S2144020807D4BDB6913F0010F00F0BA817A4B1B6B76
S21440209013F0040F35D1784B1B6B13F0010F40F053
S2144020A0C580754B1B6B13F0020F40F0C280724B1D
S2144020B01B6B13F0080F00F0A3816F4A136B00935D
S2144020C0009B43F04F030093009B23F008030093CC
S2144020D0009B1363136B13F0080FFBD105E072B639
S2144020E0BFF35F8F0022664B1A701BB0BDE8F08FBF
S2144020F04FF40062604B1A62624B9847624B9847B7
S214402100F3E7624B1B78CBB95B4B1B6BC3F30A43BD
S214402110082B18D0584A136B0193019B43F04F038A
S2144021200193019B23F004030193019B1363136BFC
S21440213013F0040FFBD1564B9847D6E7554B9847BC
S214402140554B9847E0E7554B03F108004A490A6D5E
S21440215003F8012F8342FAD1514B984798B9464A23
S214402160136B0293029B43F04F030293029B23F0B0
S21440217004030293029B1363136B13F0040FFBD10B
S214402180434B9847B1E7474B93F90030002B1DDB94
S214402190394A136B0593059B43F04F030593059B04
S2144021A023F004030593059B1363136B13F0040F8E
S2144021B0FBD13C4BDB88002B35D000233A4A1380BA
S2144021C03A4A13800122314B1A708EE72A4A136B23
S2144021D00393039B43F04F030393039B43F0800317
S2144021E00393039B1363136B13F0800FFBD0224AB9
S2144021F0136B0493049B43F04F030493049B23F018
S21440220004030493049B1363136B13F0040FFBD176
S2144022100023254A1380254A138002221B4B1A703E
S214402220234B984761E7234B98475EE7204B9847F8
S2144022305BE7164B1B78012B3ED0022B04D0042BB9
S21440224002D0134B984701E0124B98470A4A136B4B
S2144022500693069B43F04F030693069B23F0020328
S2144022600693069B1363136B13F0020FFBD10A4BC6
S21440227098473AE7851A400000400340D916400088
S214402280C0010020A50C4000F9344000EA070020B9
S214402290511B4000C11B4000391B40005308002022
S2144022A0E50C400054080020E8070020E607002020
S2144022B0D11B4000891B4000934B196BC1F30A4168
S2144022C0924B9B89924A15886A189342BCBF5B1B07
S2144022D099B28E4B9868284471B102468A4C236D59
S2144022E002F8013B131ADBB28B42F8D30D44ADB271
S2144022F0874B1D8040291AD0844B9D815B6913B162
S2144023009847002830D0804A136B0893089B43F0C8
S2144023104F030893089B23F002030893089B13631C
S214402320136B13F0020FFBD17A4B9847DDE6774BE1
S214402330DA88794B1B882B449A42DDDD734B9B89A8
S214402340AB4225D0704A136B0B930B9B43F04F0365
S2144023500B930B9B23F002030B930B9B1363136BA4
S21440236013F0020FFBD1C0E66C4B9847664A136BDE
S2144023700793079B43F04F030793079B23F0020303
S2144023800793079B1363136B13F0020FFBD1ACE666
S2144023905E4B5B6953B19847E8B15F495C4A0B882E
S2144023A0108803440B8000231380CBE75B4B984791
S2144023B0554A136B0993099B43F04F030993099BB6
S2144023C023F002030993099B136313461A6B12F01A
S2144023D0020FFBD189E6514B98474B4A136B0A9341
S2144023E00A9B43F04F030A930A9B23F002030A9387
S2144023F00A9B136313461A6B12F0020FFBD174E666
S214402400474A0123DFF800E118467FE107EB8702E1
S214402410434B03EB8203B3F810A0CAF3090A236BBD
S214402420C3F30A49B9F1000F00F0E3813C4B03EBDC
S2144024308203D3F808E0DA68AEEB020059684845F4
S21440244040F2CB8107EB8700354B03EB800302EB72
S2144024500900D86048464FF0000B11440B46226DE9
S21440246003F8012B5A1A8242F9D330462D4B98472F
S214402470BBF1000F00F0C081236B13F0200F7FF4F8
S21440248034AE214B5D61264BBA00D11903EB810176
S214402490CB688B60324600214046234B984724E663
S2144024A007EB87021E4B03EB8202537CC3F381018A
S2144024B0033161F383035374537C13F0200F5FD0D2
S2144024C013F00C0F32D0236B0C930C9B43F04F034E
S2144024D00C930C9B43F010030C930C9B2363236BD1
S2144024E013F0100FFBD0236B0D930D9B43F04F035F
S2144024F00D930D9B23F001030D930D9B2363236BDC
S21440250013F0010FFBD1F0E50040034054080020D3
S214402510E6070020891B4000E8070020511B4000CA
S214402520EC070020C91D4000891D4000236B0E9318
S2144025300E9B43F04F030E930E9B23F001030E9326
S2144025400E9B2363236B13F0010FFBD1236B0F937A
S2144025500F9B43F04F030F930F9B43F020030F93C3
S2144025600F9B2363236B13F0200FFBD007EB8707EB
S214402570A34B03EB87035A7C6FF345125A74B4E5BA
S21440258013F0800F38D107EB87029D4B03EB820395
S214402590DA689B689A4241D307EB8702984B03EB75
S2144025A082035B7C13F04C0F38D1EFF31083B3FA01
S2144025B083F35B09109372B6BFF35F8F0022914B93
S2144025C01A70109B904A55612BB101228D4B1A70A0
S2144025D0BFF35F8F62B6236B1193119B43F04F039B
S2144025E01193119B23F001031193119B2363236BDB
S2144025F013F0010FFBD178E51423814A03FB072330
S214402600597C6FF3C7115974DA689A607E4B5D61E6
S2144026103246002140467D4B9847B4E7002E5BD0BB
S214402620032E59D007EB8702754B03EB82035B7C86
S21440263013F00C0F24D0236B1293129B43F04F03DE
S2144026401293129B43F010031293129B2363236B47
S21440265013F0100FFBD0236B1393139B43F04F03E1
S2144026601393139B23F001031393139B2363236B52
S21440267013F0010FFBD100213046654B984734E5F7
S21440268001213046624B9847A0B1236B1493149BAC
S21440269043F04F031493149B23F001031493149BAD
S2144026A02363236B13F0010FFBD100213046584BB8
S2144026B098471AE51423524A03FB07277A7C6FF3A0
S2144026C0C7127A74FB68BB604F4B5D61324600218F
S2144026D040464E4B9847D8E7012130464C4B9847EA
S2144026E0236B1593159B43F04F031593159B23F0CF
S2144026F001031593159B2363236B13F0010FFBD146
S214402700F3E401331432042B00F08E80DEB2DEF8A0
S214402710181000FA03F52942F3D05F1E90469C003D
S21440272004F1402404F54034216B11F0420F7FF44D
S2144027306DAE216B11F0010F7FF4B2AE216B11F03C
S214402740080FDED0236B1693169B43F04F03169369
S214402750169B23F008031693169B2363236B13F0F4
S214402760080FFBD1236B03F4E063B3F5807F3FF49F
S214402770BCAC236BB9E4244BDB6913F4005F58D040
S214402780214C4FF41853236263610120214B984734
S214402790214B98474FF48073236223614FF40063C4
S2144027A02361A2E4184B4FF480721A625A614FF4C8
S2144027B000521A614FF400721A614FF480621A6137
S2144027C02220164B98470020124B9847144B9847A8
S2144027D08BE43046134B98474EE607EB870C084B86
S2144027E003EB8C03C3F80CE00028F2D04FF0010B4B
S2144027F033E630460B4B9847CA453FF63DAE74E449
S214402800EC070020C001002000400340891D400026
S2144028109D1E4000951A4000ED3440002D174000A4
S214402820E1344000C91D40004B4B9B6913F4005FE8
S214402830A1D1494B9B6913F4007F04D0464BDB691A
S21440284013F4007F9CD1444B9B6913F4806F04D0F3
S214402850414BDB6913F4806F92D13F4B9B6913F475
S214402860807F04D03C4BDB6913F4807F9AD13A4B8F
S214402870DB6913F4805F3FF438AC374C4FF4805339
S2144028802362364E012211463046354DA847022275
S214402890012106F11400A8470322012106F1280071
S2144028A0A847304B9847636823F00103636063682A
S2144028B023F002036360A36843F48073A360A368B5
S2144028C023F07F03A360236B1893189B43F04F03BA
S2144028D01893189B23F4074323F080031893189B00
S2144028E043F400431893189B23632246136B13F458
S2144028F0004FFBD0184A136B1993199B43F04F03B4
S2144029001993199B43F400431993199B1363136B54
S21440291013F4004FFBD0EFF31083B3FA83F35B0955
S214402920179372B6BFF35F8F00220F4B1A70179B38
S2144029300121094A116123B10B4B1970BFF35F8F18
S21440294062B60A4B9847044B4FF480721A614FF4B4
S21440295000621A61FFF7C9BB00400340EC07002045
S214402960891D40005D0C4000C0010020391B40001E
S21440297010B582B0EFF31083B3FA83F35B0901938B
S21440298072B6BFF35F8F0022144B1A70019C012071
S214402990134B98472220134B9847134B5A6F22F4F9
S2144029A080725A675A6F42F400725A674FF48072C8
S2144029B01A614FF400521A614FF400721A614FF4D4
S2144029C080621A614FF400621A612CB10122034BF7
S2144029D01A70BFF35F8F62B602B010BDC001002010
S2144029E0951A4000D91640000040034030B583B0E9
S2144029F0EFF31083B3FA83F35B09009372B6BFF329
S214402A005F8F0024274B1C70009D2220264B984742
S214402A10264B9847264B502283F8222304225A609E
S214402A20234624489A00D11800EB8101497C1A4479
S214402A3000EB820201F083016FF3C711517401333A
S214402A40032BEFD14FF480201B4B984700221B4BA3
S214402A501A701B4B1B78FF2B22D0EFF31083B3FA70
S214402A6083F35B09019372B6BFF35F8F00220D4B71
S214402A701A700199124A13780133137029B1012252
S214402A80084B1A70BFF35F8F62B60E4B98472DB156
S214402A900122044B1A70BFF35F8F62B603B030BD9D
S214402AA0FEE700BFC0010020D9164000C901400023
S214402AB000E100E0EC070020A1174000E5070020F9
S214402AC04808002071294000002070470D4B5A6886
S214402AD022F001025A609A6822F480729A60024696
S214402AE070B1986820F07F0002F07F021043986033
S214402AF09A6842F480729A605A6842F001025A60BC
S214402B00704700BF00400340054B5B6813F0010F61
S214402B101DBF034B986800F07F000020704700BF41
S214402B2000400340024B1868C0F30A00704700BFDD
S214402B300040034000207047014B986099817047E1
S214402B4054080020F0B583B000F00F04032C67D87B
S214402B50A30003F1402303F540331D6B15F4004FEB
S214402B6061D101F00305012D50D0251FEDB2022D95
S214402B7034BF4FF400754025954258DB40B2661E80
S214402B8006EB86072B4D05EB870505F11007B5F8D4
S214402B9010E062F3090EA5F810E06A7C02F07F02AE
S214402BA06FF345126A74002835DB234EB56A01225E
S214402BB002FA04F42543B5623546AA6A1442FCD0AC
S214402BC01D4DAA6A22EA0404AC621A6B0192019A6D
S214402BD042F04F020192019A22F4074222F080020C
S214402BE0019200284FEA012202F44072B4BF42F438
S214402BF0044242F40042019911430191019919633C
S214402C00196B32EA0101FBD101200AE06CB1032CBA
S214402C10ABD1002005E07A786FF383027A70C4E780
S214402C20002003B0F0BD0020FBE70020F9E70020BD
S214402C30F7E700BFEC0700200040034000F00F021B
S214402C40032A22D800B583B0910001F1402101F556
S214402C5040310B6B0193019B43F04F030193019B63
S214402C6023F400430193019B0B630B6B13F4004F5B
S214402C70FBD1501E00EB80000121044B03EB80008B
S214402C80034B984703B05DF804FB7047EC07002001
S214402C90891D400000F00F00032815D8431E03EBA3
S214402CA083030A4A02EB83035B7C13F0200F09D1AF
S214402CB00C30074B53F8203013F0280F14BF012078
S214402CC0002070470120704700207047EC07002026
S214402CD00040034000F00F0103295FD810B483B0D2
S214402CE0EFF31083B3FA83F35B09019372B6BFF335
S214402CF05F8F00222C4B1A70019C10F0800F24D15D
S214402D008A0002F1402202F54032136B0093009B8A
S214402D1043F04F030093009B43F020030093009B37
S214402D201363136B13F0200FFBD0012303FA01F15A
S214402D301E4B1961002C35D001201B4B1870BFF379
S214402D405F8F62B603B010BC70474B1E01F10C0299
S214402D50164850F8222012F0100F09D103EB8302D8
S214402D60134800EB8202527CC2F38102012AC7DD7F
S214402D7003EB83020E4B03EB82035A7C42F02002A5
S214402D805A74012303FA01F1084B196144B101203A
S214402D90054B1870BFF35F8F62B6D3E700207047CD
S214402DA00120CFE70120CDE7C001002000400340CE
S214402DB0EC07002000F00F0003285ED830B583B043
S214402DC0441E04EB84022F4B03EB82035A7C6FF3C2
S214402DD045125A74830003F1402303F540331A6BBF
S214402DE012F0200F4BD01A6B0092009A42F04F021E
S214402DF00092009A22F020020092009A1A631A6B00
S214402E0012F0200FFBD1204DA96A012202FA00F0F1
S214402E100143A96229468A6A1042FCD01A498A6A46
S214402E2022EA000088621A6B0192019A42F04F0231
S214402E300192019A22F008020192019A1A631A6BD3
S214402E4012F0080FFBD104EB84030E4A02EB830317
S214402E505B7C13F0100F01D1012011E01146A20057
S214402E60131901EB8303587C6FF304105874144411
S214402E7051F824309847012002E000207047012096
S214402E8003B030BDEC07002000400340F0B583B0EF
S214402E9000F00F07032F00F2A280BC0004F140248C
S214402EA004F54034256B15F4004F00F09B807D1EE2
S214402EB005EB850E504E06EB8E06767C16F0200F00
S214402EC040F09280266B16F0200F40F08F80EFF394
S214402ED01086B6FA86F67609009672B6BFF35F8F0E
S214402EE04FF0000E454E86F800E0DDF800C005EBDA
S214402EF0850E414E06EB8E06767C16F0100F0AD0F5
S214402F00BCF1000F74D001223C4B1A70BFF35F8FA8
S214402F1062B6002064E005EB850E374E06EB8E0663
S214402F2096F811E04EF0100E86F811E0BCF1000F56
S214402F3007D04FF0010E314E86F800E0BFF35F8FAA
S214402F4062B6DFF8B4C005EB8506B6000CEB060E9D
S214402F50CEF80420CEF808300022CEF80C20089A8E
S214402F604CF8062011B9B3FA83F14909224AAE005B
S214402F70731902EB83035B7C61F38613354402EBE3
S214402F8085026FF3C7135374EFF31083B3FA83F3DA
S214402F905B09019372B6BFF35F8F0022174B1A701E
S214402FA0019D0123BB40164A136110F0800F07D1E4
S214402FB005B30120114B1870BFF35F8F62B60FE068
S214402FC0236B13F0110FF3D1012138460D4B984770
S214402FD00028EDD0002138460A4B9847E8E7002005
S214402FE003B0F0BD0020FBE70020F9E70020F7E73C
S214402FF00020F5E70120F3E7EC070020C0010020A1
S214403000004003409D1E4000F0B587B000F00F051D
S214403010032D40D8EFF31083B3FA83F35B0905938F
S21440302072B6BFF35F8F00224B4B1A70059B01248C
S214403030AC404A4A54612BB10122474B1A70BFF349
S2144030405F8F62B610F0800F27D1AE0006F14026A3
S21440305006F54036336B13F0420F06D0404F2846F5
S214403060B847336B13F0420FF9D13C4A936A234377
S2144030709362936A1C42FCD0384A936A23EA04045B
S2144030809462681E00EB80002A460121354B03EB14
S2144030908000354B984707B0F0BDAB0003F14023A6
S2144030A003F540331A6B12F0100F3AD04DB3032D90
S2144030B027D01A6B0192019A42F04F020192019A70
S2144030C022F010020192019A1A631A6B12F0100F46
S2144030D0FBD11A6B12F0100FFBD11A6B0292029AB8
S2144030E042F04F020292029A42F010020292029A74
S2144030F01A631A6B12F0100FFBD01A6B12F0100FF7
S214403100FBD01A6B0392039A42F04F020392039A43
S21440311022F010020392039A1A631A6B12F0100FF1
S214403120FBD11A6B0492049A42F04F020492049A1E
S21440313022F001020492049A1A631A6B12F0010FED
S214403140FBD16B1E03EB8302064B03EB82035A7CD8
S2144031506FF383025A7488E7C001002000400340A2
S214403160C91D4000EC070020891D400010B40B012B
S214403170934214D9C9004B0803EBC202B2FBF1F2EA
S214403180D3085C1E4FF6FE718C4201D9012017E031
S214403190416841F4002141600CE0012010E05908EC
S2144031A001EBC202B2FBF3F2D3085C1E4FF6FE718F
S2144031B08C42F2D8120402F4E0221A430262002043
S2144031C010BC70470A4BC0F8E430002343604362AB
S2144031D0836288230360242303604FF48073036074
S2144031E04FF4002303604FF400330360704700BF82
S2144031F00041535570B505460C4616460F4B98474A
S21440320000220F4B1A60A4B13246216828460D4B67
S2144032109847024678B96368A1680B4321690B4317
S214403220E1680B4306490B6069680B436B601046C8
S21440323070BD0122FBE70122F9E700BFC53140001F
S214403240280800206D3140004023036070478023EB
S2144032500360704710230360704724230360704761
S21440326081607047C1607047006970474069704729
S214403270436913F0020F1DBFC1F30801C16100206E
S21440328001207047436913F0010F05D08369C3F3EB
S21440329008030B600020704701207047FEE70000DF
S2144032A008B51C4B1C4A9A4210D01C4B194A9A42ED
S2144032B00CD2013B9B1A23F00303043313441649F4
S2144032C051F8040B42F8040B9A42F9D1144B154AB4
S2144032D09A420AD2013B9B1A23F003030433134459
S2144032E0002142F8041B9342FBD10F4B23F060426F
S2144032F022F07F020D498A6003F16043B3F5004F28
S21440330003D28B6843F000538B60094B9847094BB8
S2144033109847FEE70000002038394000F0050020BE
S2144033206C080020F00500200000400000ED00E0A2
S214403330A9374000493440003C4B1B6B03F0030365
S214403340032B0ED8DFE803F0021C3838384B5B6995
S21440335013F0800F14BF4FF400424FF4FA42354B3F
S2144033601A60324B1B6B03F07003702B55D02F4BFB
S2144033701A6B3049C2F302120B68D3400B60704799
S2144033802A4B1B6A13F0807F03D02B4A294B1A60C6
S214403390E7E72A4A274B1A60244B1B6A03F0700360
S2144033A0102B05D0202BDCD1234A224B1A60D8E7BD
S2144033B0234A204B1A60D4E71C4B1B6A13F0807FCD
S2144033C018D01D4A1B4B1A60184B1B6B03F00303A7
S2144033D0022B164A07BF916A926AD16AD26A15488A
S2144033E0C1F30A41036801FB0333D2B2B3FBF2F3E5
S2144033F00360B6E7114A0F4B1A600C4B1B6A03F08A
S2144034007003102B05D0202BDED10B4A094B1A60D7
S214403410DAE70B4A074B1A60D6E7064A13680949AB
S214403420A1FB03135B081360704700BF00040E4007
S21440343010140E40C4010020001BB70000093D00D8
S21440344000127A00ABAAAAAA80B501211C4B1970BB
S214403450BFF35F8F62B61B4B00221A705A709A7089
S214403460DA701A715971184B9847184B9847184B91
S2144034709847184B9847184B9847114C00252F46AD
S214403480104EDFF8588004E001232370BFF35F8FAF
S21440349062B672B6BFF35F8F27703378002BF3D1D6
S2144034A0084B28460130C0B213F8012F002AF9D045
S2144034B00028E9D072B6BFF35F8F2570C047E8E7B3
S2144034C0C001002048080020190240003911400081
S2144034D03D01400055014000510C4000ED174000B2
S2144034E008B5014B984708BD5501400008B5014B4B
S2144034F0984708BD6901400008B5044B1B7803B9DE
S21440350008BD034B9847034B9847F9E72C08002023
S214403510252B4000A501400010B50124024B1C702D
S214403520024B9847204610BD2C08002031374000FB
S21440353008B50022024B1A70024B984708BD00BFE0
S2144035402C0800209137400008B511B9024B984727
S21440355008BD024B984708BD8901400079014000EC
S21440356010B582B02348244B9847044610F0010F0C
S21440357004D110F0020F25D102B010BD1F4B984762
S21440358001A91C481E4B984760B914F4E07F09D146
S2144035901C4B984790B91C4B98471C4B98471C4B64
S2144035A09847E9E7134C20461A4B984720461A4B53
S2144035B098471A4B98471A4B9847E9E70198194B92
S2144035C09847ECE7184B984750B90A4C2046174B9B
S2144035D0984702212046164B9847164B9847CBE70C
S2144035E0154B9847154B984701460248144B984749
S2144035F0C2E700BF00060E406D3240009D0140000D
S21440360085324000F90940005D064000A3014000B5
S2144036109F0140005B324000553240004906400062
S214403620A1014000A50A40008D0840004F324000EE
S214403630653240009B014000990140005909400016
S2144036407132400010B50848084B984710F0010FFB
S21440365000D110BD044C2046054B98470221204619
S214403660044B9847F5E700BF00060E40693240001D
S214403670493240006132400070B50B79012B0CD0C6
S214403680022B0CBF4FF4005000204B79013B032B1C
S2144036900FD8DFE803F00511080B4FF48050F4E72D
S2144036A04FF4007209E04FF4C06206E04FF48062C7
S2144036B003E04FF4006200E000228B795C1F022C8E
S2144036C094BF2346C0230968104D29606B60AA60EA
S2144036D0E86000232B610E4C20460E4B984706466A
S2144036E04FF0FF3120460C4B98470C4A294620465F
S2144036F00B4B984720460B4B984720460A4B98471B
S21440370031462046094B984770BD00BF3008002020
S21440371000060E4069324000653240000090D003FB
S214403720F531400049324000553240006132400099
S21440373010B50E4B302283F808234FF480721A607F
S21440374008200B4B98470B4A0B490C480C4B9847A4
S21440375000B110BD094C20460A4B984720460A4BFC
S214403760984703212046094B9847F2E700E100E0DE
S214403770D91640000090D0033008002000060E40C6
S214403780F531400049324000553240006132400039
S21440379008B54FF0FF310248024B984708BD00BFBE
S2144037A000060E406532400070B50F4E0F4D761B3A
S2144037B0B61018BF002405D0013455F8043B98478E
S2144037C0A642F9D10A4E0B4D00F0A4F8761BB6106F
S2144037D018BF002406D0013455F8043B9847A6424B
S2144037E0F9D170BD70BD00BF20394000203940007F
S2144037F02839400020394000024B13B1024800F0FF
S21440380005B8704700000000193840000023014604
S2144038101A46184600F01AB838B50A4C0A4D641BCA
S214403820A4100AD004F18043013B05EB8305013C1C
S21440383055F804399847002CF9D1BDE8384000F0D7
S21440384073B800BF38394000343940002DE9F0479E
S214403850274C074626688846D6F8484192469946F9
S214403860002C3CD065681F2D1ADC05F1010E7FB197
S214403870012004EB8503C3F888A0D4F8881100FA29
S21440388005F21143022FC4F88811C3F8089120D0DE
S2144038900235C4F804E0002044F82580BDE8F087EF
S2144038A0144B0BB34FF4C870AFF300800446D8B146
S2144038B00020D6F848314FF0010E60602360054680
S2144038C0C6F84841C4F88801C4F88C01002FDFD000
S2144038D0CEE7D4F88C311A43C4F88C21D8E706F5E5
S2144038E0A674C6F84841BDE74FF0FF30BDE8F08704
S2144038F010394000000000001300000000000000E7
S2144039001400000000000000540000000100000009
S214403910C8010020F8B500BFF8BC08BC9E467047FA
S214403920F9374000F5004000F8B500BFF8BC08BCC9
S20C4039309E467047D10040009E
S2144039384FF440721F4B1A60A3F5C0631B6A13F01E
S214403948807F07D11C4A1D4B1A621A46936E13F0A5
S214403958010FFBD01A4A194B1A621A46936E13F493
S214403968803FFBD0154A136B23F0030343F0010353
S2144039781363936E13F0080FFBD0124A0F4B9A62EC
S2144039881A46936E13F0020FFBD011220B4B1A63A4
S2144039981A46936E13F0080FFBD01222074B1A6391
S2144039A81A46936E13F0080FFBD0074A074B1A6067
S2144039B8704700BF000A0E400908370000040E4052
S2144039C809083701033F1F200090D003C401002098
S2144039D80C4B98420CD90C4B98420DD90B4B98423D
S2144039E894BF4FF400724FF44072094B1A60704708
S2144039F80022074B1A6070474FF48072044B1A60D7
S214403A08704700BF3F6603017FC3C9017FF937038C
S214403A18000A0E40A90240007D024000AD05400065
S214403A2891024000000000009D07400085054000C8
S214403A388D0240009102400091044000640100203D
S214403A481801002000000000200100207801002016
S214403A5809024300020100C03209040000010202C4
S214403A680100052400100104240202052406000172
S214403A7805240103010705830340001009040100DB
S214403A88020A0000000705810240000007050202FE
S214403A98400000001201000202000040EB0304242C
S214403AA80001010200010000E4000020F8000020A8
S214403AB800030000000000000000000000000000B6
S214403AC800000000000000000000000000000000A9
S214403AD80403090441544D454C2041534600000018
S214403AE8434443205669727475616C20436F6D0079
S214403AF80100000000093D0000000000B40400205A
S214403B081C0500208405002000000000000000007E
S214403B180000000000000000000000000000000058
S214403B280000000000000000000000000000000048
S214403B380000000000000000000000000000000038
S214403B480000000000000000000000000000000028
S214403B580000000000000000000000000000000018
S214403B680000000000000000000000000000000008
S214403B7800000000000000000000000000000000F8
S214403B8800000000000000000000000000000000E8
S214403B9800000000000000000000000000000000D8
S214403BA801000000000000000E33CDAB34126DE675
S214403BB8ECDE05000B0000000000000000000000DE
S214403BC800000000000000000000000000000000A8
S214403BD80000000000000000000000000000000098
S214403BE80000000000000000000000000000000088
S214403BF80000000000000000000000000000000078
S8044032A1E8
